:020000040800F2
:1000000000000220B9020008C1020008C502000871
:10001000390300083D0300088503000800000000C4
:10002000000000000000000000000000CD030008F8
:10003000D103000800000000D5030008D903000820
:10004000E9030008E9030008E9030008E9030008E0
:10005000E9030008E9030008E9030008E9030008D0
:10006000E9030008E9030008E9030008E9030008C0
:10007000E9030008E9030008E9030008E9030008B0
:10008000E9030008E9030008E9030008E9030008A0
:10009000E9030008E9030008E9030008E903000890
:1000A000E9030008E9030008E9030008E903000880
:1000B000E9030008E9030008E9030008E903000870
:1000C000E9030008E9030008E9030008E903000860
:1000D000E9030008E9030008E9030008E903000850
:1000E000E9030008E9030008E9030008E903000840
:1000F000E9030008E9030008E9030008E903000830
:10010000E9030008E9030008E9030008E90300081F
:10011000E9030008E9030008E9030008E90300080F
:10012000E9030008E9030008E9030008E9030008FF
:10013000E9030008E9030008E9030008E9030008EF
:10014000E9030008E9030008E9030008E9030008DF
:10015000E9030008E9030008E9030008E9030008CF
:10016000E9030008E9030008E9030008E9030008BF
:10017000E9030008E9030008E903000800000000A3
:10018000E9030008E903000800B583B000F05AFE57
:10019000384B394A1360394A136039490CE00A6810
:1001A0004B6801F10C04886803E01168196004339E
:1001B00004329842F9D82146324B9942EFD32E4B64
:1001C0001A68314B9A4204D12C4B1A682F4B9A4231
:1001D00000D0FEE7274B2E4A13602E4A13602E4BA9
:1001E0000AE0194651F8082B5B6802E00020106015
:1001F00004329A42FAD30B46284A9342F1D3244B55
:100200001B6813B9234B1B6803B1FEE700F06CFFBA
:10021000694601A800F0A6FD214C224B1C1BA4102E
:10022000002504E01E4B53F8253098470135AC42B9
:10023000F8DC1D4C1D4B1C1BA410002504E01A4BC0
:1002400053F8253098470135AC42F8DC0099019805
:1002500000F052FF0546164C164B1C1BA41004E080
:10026000013C134B53F824309847002CF8DC284607
:1002700000F04AFDBABADECA000000207400002077
:10028000EC030008040400087856341232547698BF
:100290007800002014010020040400081404000861
:1002A00014040008140400081404000814040008CE
:1002B000140400081404000808B5FFF765FF00BF28
:1002C00000BEFEE71EF0040F0CBFEFF30880EFF353
:1002D00009807146414A10472DE9F04182B0044639
:1002E0008846134B5E6B9F6B9D6A1B6B13F0020F6E
:1002F0000DD00F4BDB6A002B09DA4BF6AB6100F037
:1003000025FE20B14FF00042094BDA620CE00948AB
:1003100000F03AFDCDF800803B46324629462046A3
:1003200000F09CFD00BEFEE702B0BDE8F08100BF1A
:1003300000ED00E0741C000800BEFEE71EF0040F94
:100340000CBFEFF30880EFF309807146244A104791
:100350002DE9F04182B004468846084B5E6B9F6BE6
:100360009D6A074800F010FDCDF800803B463246FC
:100370002946204600F072FD00BEFEE700ED00E0D9
:10038000841C00081EF0040F0CBFEFF30880EFF38D
:1003900009807146134A10472DE9F04182B00446A6
:1003A0008846084B5E6B9F6B9D6A074800F0ECFC2B
:1003B000CDF800803B4632462946204600F04EFDEF
:1003C00000BEFEE700ED00E0901C000800BEFEE766
:1003D00000BEFEE700BEFEE770470000D90200083D
:0C03E000510300089903000800BEFEE76E
:1003EC00E41C00080000002078000020E41C000839
:1003FC000000001000000010780000201801002000
:08040C000000001000000010C8
:1004200010B50446074B1B680748A0FB0330800942
:1004300000F08CF8002221464FF0FF3000F044F825
:10044000002010BD0C000020D34D621008B50B4BEE
:100450001A6842F400721A601A6842F480621A60E4
:100460001A6842F480721A60032000F00FF80F201F
:10047000FFF7D6FF00F042FE002008BD003C02401E
:10048000014B1868704700BF0C01002010B50446EE
:10049000C31E042B03D9A421094800F06BFC094AB0
:1004A000D36823F4E0631B041B0C240204F4E0640F
:1004B000234343F0BF6343F40033D36010BD00BF58
:1004C000381A000800ED00E070B504460E461546E7
:1004D0000F2A03D9BC211A4800F04CFC0F2E03D977
:1004E000BD21174800F046FC164BDA68C2F3022221
:1004F000C2F10701042928BF0421131D062B01D9CD
:10050000033A00E00022012303FA01F101393140EE
:10051000914003FA02F2013A2A400A43002C06DA1B
:1005200004F00F041201D2B2074B1A5570BD12012C
:10053000D2B204F1604404F5614484F8002370BD34
:10054000381A000800ED00E014ED00E00138B0F1C9
:10055000807F0AD2064B5860F021064A82F82310A9
:100560000020986007221A6070470120704700BF82
:1005700010E000E000ED00E010B50446042805D0CE
:1005800020B140F2B311084800F0F4FB042C05D16F
:10059000064A136843F00403136010BD034A13684E
:1005A00023F00403136010BD381A000810E000E0C7
:1005B00030B583B0044603680F2B03D9F5219C485E
:1005C00000F0D8FB236813F0010F45D06368012BBE
:1005D00005D9052B03D0FA21954800F0CBFB954BAC
:1005E0009B6803F00C03042B0AD0924B9B6803F02A
:1005F0000C03082B0CD18F4B5B6813F4800F07D0D2
:100600008C4B1B6813F4003F26D0636823BBCCE1FE
:100610002279894B1A7063687BB1FFF731FF054679
:1006200005E0FFF72DFF401B642800F2C081814BDD
:100630001B6813F4003FF4D00EE0FFF721FF0546DE
:1006400005E0FFF71DFF401B642800F2B281794BE3
:100650001B6813F4003FF4D1236813F0020F6AD033
:10066000E368012B04D94FF49671714800F082FBC6
:1006700023691F2B04D940F22D116D4800F07AFB3D
:100680006C4B9B6813F00C0F0AD06A4B9B6803F00D
:100690000C03082B1BD1674B5B6813F4800F16D13A
:1006A000644B1B6813F0020F03D0E368012B40F08A
:1006B00082816048036823F0F8012369F82292FAE6
:1006C000A2F2B2FA82F293400B43036033E0E36894
:1006D000FBB10122594B1A60FFF7D2FE054605E037
:1006E000FFF7CEFE401B022800F26781514B1B68CA
:1006F00013F0020FF4D04F48036823F0F801236988
:10070000F82292FAA2F2B2FA82F293400B4303600B
:1007100011E00022494B1A60FFF7B2FE054605E0E2
:10072000FFF7AEFE401B022800F24981414B1B68D7
:1007300013F0020FF4D1236813F0080F2ED0636971
:10074000012B04D940F26D11394800F013FB6369A5
:1007500093B101223A4B1A60FFF792FE054605E07D
:10076000FFF78EFE401B022800F22B81314B5B6F9E
:1007700013F0020FF4D011E00022314B1A60FFF7A2
:100780007FFE054605E0FFF77BFE401B022800F2D6
:100790001A81284B5B6F13F0020FF4D1236813F01A
:1007A000040F60D0A368012B06D9052B04D040F2BA
:1007B00097111F4800F0DEFA002301931D4B1A6CBD
:1007C00042F080521A641B6C03F080530193019B2A
:1007D0001C4A136843F480731360FFF751FE05460B
:1007E00005E0FFF74DFE401B022800F2EE80154B9E
:1007F0001B6813F4807FF4D0227A134B1A70A3681D
:100800008BB1FFF73DFE054607E0FFF739FE401BC1
:1008100041F28833984200F2DA80064B1B6F13F0E6
:10082000020FF2D01FE0FFF72BFE054616E000BFD7
:100830007C1A00080038024002380240000047429B
:10084000800E47420070004070380240FFF718FEEB
:10085000401B41F28833984200F2BB80634B1B6F10
:1008600013F0020FF2D1A369022B04D94FF4E67101
:100870005F4800F07FFAA369002B00F0AC805B4A70
:10088000926802F00C02082A00F0A780022B79D1AE
:10089000E3693BB1B3F5800F04D040F2D511544861
:1008A00000F068FA236A3F2B04D94FF4EB715048EB
:1008B00000F060FA636A323BB3F5BF7F04D940F2BF
:1008C000D7114B4800F056FAA36A022B0AD0042B2A
:1008D00008D0062B06D0082B04D04FF4EC71444806
:1008E00000F048FAE36A043B0B2B04D940F2D9111B
:1008F0003F4800F03FFA00223E4B1A60FFF7C0FD70
:10090000054604E0FFF7BCFD401B022867D8374BC3
:100910001B6813F0007FF5D1E169236A1943636A0C
:1009200047F6C07292FAA2F2B2FA82F293401943E9
:10093000A36A5B085A1E4FF4403393FAA3F3B3FA49
:1009400083F302FA03F30B43E26A4FF0706191FA0A
:10095000A1F1B1FA81F18A401343244A5360012284
:10096000244B1A60FFF78CFD044604E0FFF788FD76
:10097000001B022835D81D4B1B6813F0007FF5D0F3
:10098000002031E000221B4B1A60FFF779FD04467E
:1009900004E0FFF775FD001B022824D8134B1B68E9
:1009A00013F0007FF5D100201EE001201CE00320A1
:1009B0001AE0032018E0012016E0032014E00320D1
:1009C00012E0032010E003200EE003200CE00320DF
:1009D0000AE0032008E0002006E0012004E00320F4
:1009E00002E0032000E0032003B030BD00380240E5
:1009F0007C1A000860004742244B9B6803F00C03FC
:100A0000042B3FD0082B01D02148704710B41F4B56
:100A1000586800F03F005B6813F4800F10D01D4B46
:100A2000B3FBF0F0194B5A6847F6C0710A4091FACF
:100A3000A1F3B3FA83F322FA03F303FB00F310E00C
:100A4000134BB3FBF0F0114B5A6847F6C07402EA3F
:100A5000040194FAA4F2B2FA82F221FA02F202FB41
:100A600000F30A4A506800F440324FF4403090FAE4
:100A7000A0F0B0FA80F022FA00F001304000B3FBA1
:100A8000F0F001E00348704710BC704700380240A6
:100A90000024F40000127A0070B504460D46036885
:100AA000013B0E2B04D940F237218F4800F062F948
:100AB000072D04D94FF40E718B4800F05BF98B4B76
:100AC0001B6803F00F039D4208D9EBB2874A1370ED
:100AD000136803F00F039D4240F0F480236813F085
:100AE000020F1DD0A368A3B1802B12D0902B10D081
:100AF000A02B0ED0B02B0CD0C02B0AD0D02B08D0FE
:100B0000E02B06D0F02B04D040F24F21764800F0C5
:100B100031F977498B6823F0F002A36813438B60A7
:100B2000236813F0010F6BD06368032B04D940F2E4
:100B300056216D4800F01EF96268012A05D16C4B00
:100B40001B6813F4003F0FD1BEE0931E012B05D8A4
:100B5000674B1B6813F0007F06D1B7E0644B1B683E
:100B600013F0020F00F0B48061498B6823F0030397
:100B700013438B60FFF784FC06466368012B0FD19B
:100B800007E0FFF77DFC801B41F28833984200F2BA
:100B9000A180574B9B6803F00C03042BF1D12FE08D
:100BA000022B0FD107E0FFF76BFC801B41F288336B
:100BB000984200F291804E4B9B6803F00C03082B87
:100BC000F1D11DE0032B16D107E0FFF759FC801B84
:100BD00041F28833984200F28180454B9B6803F0D4
:100BE0000C030C2BF1D10BE0FFF74AFC801B41F208
:100BF0008833984274D83E4B9B6813F00C0FF3D1A6
:100C00003A4B1B6803F00F039D4207D2EAB2374B01
:100C10001A701B6803F00F039D4263D1236813F021
:100C2000040F19D0E36883B1B3F5805F0DD0B3F53D
:100C3000A05F0AD0B3F5C05F07D0B3F5E05F04D082
:100C40004FF42D71284800F095F829498B6823F45A
:100C5000E052E36813438B60236813F0080F1AD047
:100C6000236983B1B3F5805F0DD0B3F5A05F0AD0DF
:100C7000B3F5C05F07D0B3F5E05F04D040F2BB210D
:100C8000194800F077F81A4A936823F46043216901
:100C900043EAC1039360FFF7AFFE154B9B6803F077
:100CA000F002F02393FAA3F3B3FA83F322FA03F3E7
:100CB000104AD35CD840104B18600F20FFF7B0FBF0
:100CC000002070BD012070BD012070BD012070BDED
:100CD000012070BD032070BD032070BD032070BDD6
:100CE000032070BD012070BD7C1A0008003C02404A
:100CF000003802406C1A00080C000020014B1868F4
:100D0000704700BF0C000020FEE700BF08B5034895
:100D100000F052F80120FFF7F7FF00BFAC1A0008FF
:100D200008B50D4B1B6813B90C4A0B4B1A600A4BE4
:100D30001A68C31C23F00303134409498B4206D9E4
:100D400000F0DEF90C2303604FF0FF3008BD0249CC
:100D50000B60104608BD00BF7C0000201801002079
:100D600000FC012001230360014B0B60704700BFB2
:100D70000400002008B50A460146024800F004F8C5
:100D8000FFF7C4FF001B00080FB400B583B004AB2D
:100D900053F8042B01938021064800F0EBF900285A
:100DA00003DD0146034800F049F803B05DF804EBA9
:100DB00004B070478400002010B5044600F0A6F986
:100DC0000146204600F03AF80121024800F036F8CA
:100DD00010BD00BFF01B00082DE9F04385B00446AC
:100DE0000F46435613BB042528462146ABBE044696
:100DF0001FE03546102E28BF1025002306E014F909
:100E0000011B04AA1A4402F8101C0133AB42F6D3AA
:100E100004AA1344002203F8102CE9464FF00408FA
:100E200040464946ABBE8046761B00E00E46002E8B
:100E3000DFD1384605B0BDE8F08300BF08B5FFF745
:100E4000CBFF08BD08B500F091F8024B024A9A604A
:100E500008BD00BF00ED00E000000008F8B5044642
:100E60000D4617461E462648FFF78EFF2168254887
:100E7000FFF78AFF61682448FFF786FFA1682348CF
:100E8000FFF782FFE1682248FFF77EFF21692148D2
:100E9000FFF77AFF61692048FFF776FFA1691F48D5
:100EA000FFF772FFE1691E48FFF76EFF1D48FFF76D
:100EB0006BFF29461C48FFF767FF1C4CE16A1C4882
:100EC000FFF762FF216B1B48FFF75EFFE16B1A48DB
:100ED000FFF75AFF15F0800F03D039461748FFF788
:100EE00053FF15F4004F03D031461548FFF74CFF70
:100EF0001448FFF749FF06991348FFF745FFF8BD6F
:100F0000581B0008681B0008781B0008881B000895
:100F1000981B0008A81B0008B81B0008C81B000885
:100F2000D81B0008E81B0008F41B000800ED00E0D7
:100F3000041C0008141C0008241C0008341C0008B1
:100F4000441C0008541C00085C1C000883691A88B3
:100F50008A4207D10268033A012A05D80233836125
:100F60000120704700207047002070470C4B1A6822
:100F700042F001021A60002199601A6822F084721E
:100F800022F480321A60074A5A601A6822F48022DA
:100F90001A60D9604FF00062034B9A60704700BF3F
:100FA000003802401030002400ED00E0224B9B6826
:100FB00003F00C03042B07D0082B09D0002B2DD1F4
:100FC0001E4A1F4B1A602CE01E4A1D4B1A6028E077
:100FD000194B5A685B6803F03F0312F4800F09D085
:100FE000184AB2FBF3F2144B5B68C3F3881303FB9C
:100FF00002F208E0114AB2FBF3F30F4A5168C1F361
:10100000881101FB03F20C4B5B68C3F3014301330E
:101010005B00B2FBF3F30A4A136002E0074A084B95
:101020001A60054B9B68C3F30313074AD15C044A5B
:101030001368CB4013607047003802400024F4006E
:101040000C00002000127A00A01C000830B595B0FA
:1010500000240194214B1A6C42F080521A641B6CDC
:1010600003F080530193019B02941D4B1A6842F4D4
:1010700080421A601B6803F480430293029B0123A1
:10108000089309934FF480030F93082310934FF4B0
:10109000A873119302251295072313930E9508A8A0
:1010A000FFF786FA0F230393049505944FF4A0539A
:1010B00006934FF480530793052103A8FFF7ECFC38
:1010C000FFF71CFE074BA3FB00308009FFF73EFA39
:1010D0000420FFF751FA15B030BD00BF00380240C0
:1010E00000700040D34D621008B5FFF7AFF9FFF76D
:1010F000ADFFFFF75BFF08BDFEE700BF704700BF15
:10110000014B1868704700BF70000020034613F8B9
:10111000012B002AFBD1181A0138704730B5141E74
:1011200005469BB0184604DA8B232B604FF0FF3046
:101130001DE04FF40273ADF80C3014BF04F1FF331F
:101140002346029305934FF6FF7300910491ADF887
:101150000E3002461E9B6946284600F073F8431C79
:10116000BCBF8B232B6014B1009B00221A701BB0F4
:1011700030BD000007B5009313460A4601460348F8
:101180000068FFF7CBFF03B05DF804FB70000020A0
:101190002DE9F0478E689E4282460C46914698465D
:1011A0003ED88A8912F4906F3AD0256809696F1A7F
:1011B0006569022305EB450595FBF3F57B1C43446C
:1011C0009D4238BF1D4653050FD5294600F094FBBC
:1011D000064698B13A46216900F01AFBA38923F428
:1011E000906343F08003A38113E02A4600F0E2FB02
:1011F000064670B92169504600F030FB0C23CAF84E
:101200000030A38943F04003A3814FF0FF30BDE8D5
:10121000F087266165613E44ED1B2660A560464669
:10122000464528BF464632464946206800F0FBFA4C
:10123000A3689B1BA36023681E4426600020BDE8B2
:10124000F08700002DE9F04F9DB0804603938B8915
:101250001C060D4616460DD50B695BB9402100F002
:101260004BFB2860286118B90C23C8F80030CDE08A
:1012700040236B610023099320238DF82930DFF888
:101280009CB130238DF82A3037463C4614F8013B98
:101290001BB9B7EB060910D003E0252BF9D0274680
:1012A000F3E74B46324629464046FFF771FF0130CF
:1012B00000F0A780099B4B4409933B78002B00F07A
:1012C000A08000234FF0FF3204930793059206930A
:1012D0008DF853301A930126052221784E4800F0EC
:1012E00047FA671C049B38B14B4A801A06FA00F093
:1012F000184304903C46EFE7D90644BF20228DF8FE
:1013000053201A0744BF2B228DF8532022782A2A13
:1013100003D0079A00210A200BE0039A111D1268DE
:101320000391002A10DA524243F00200079204901F
:101330000BE0274601343B78303B092B03D800FBF8
:1013400002320121F5E701B107923B782E2B1ED125
:101350007B782A2B0AD1039B1A1D1B680392002B52
:10136000B8BF4FF0FF330237059310E00023059319
:10137000781C19460A24074601303A78303A092A7F
:1013800003D804FB01210123F5E703B105910322F2
:101390003978224800F0ECF940B14023CBEB000053
:1013A00003FA00F0049B18430490013739781C4875
:1013B0008DF8281006227E1C00F0DAF988B1194B4E
:1013C00033B9039B073323F007030833039314E077
:1013D00003AB00932A46144B04A94046AFF30080A8
:1013E00007E003AB00932A460F4B04A9404600F0E8
:1013F00093F8B0F1FF3F824603D0099B5344099311
:1014000042E7AB895B0601D4099801E04FF0FF3059
:101410001DB0BDE8F08F00BFB01C0008B61C00086E
:10142000BA1C000800000000911100082DE9F047E7
:1014300091461F460A698B68DDF820809342B8BF49
:101440001346C9F8003091F8432006460C4612B105
:101450000133C9F800302368990642BFD9F800303B
:101460000233C9F80030256815F0060510D104F1E3
:10147000190A07E00123524639463046C047013079
:101480001AD00135E368D9F800209B1A9D42F1DBA0
:1014900094F843302268003318BF012392060FD519
:1014A000E1185A1C302081F84300224494F845107A
:1014B00082F84310023303E04FF0FF30BDE8F087BD
:1014C00004F1430239463046C0470130F4D0226867
:1014D000D9F80050E36802F00602042A08BF5D1B39
:1014E0002269A3680CBF25EAE57500259342C4BFB5
:1014F0009B1AED184FF000091A344D4509D001230D
:10150000224639463046C0470130D5D009F101099D
:10151000F3E70020BDE8F0872DE9F04317460A7E87
:1015200085B06E2A984606460C460C9B01F1430E88
:1015300000F0AE8011D8632A22D009D8002A00F02A
:10154000BB80582A40F0CA8081F84520834955E085
:10155000642A1ED0692A1CD0C0E0732A00F0B08033
:1015600009D86F2A2ED0702A40F0B8800A6842F05D
:1015700020020A603EE0752A24D0782A3AD0ADE0F5
:101580001A6801F14205111D1960136884F8423090
:10159000A8E021681A6811F0800F02D0111D1960AF
:1015A00008E011F0400F02F10401196002D0B2F915
:1015B000003000E01368002B3CDA2D225B4284F8F7
:1015C000432037E021681A6811F0800F02D0111D06
:1015D000196007E011F0400F02F10401196001D019
:1015E000138800E01368227E5C496F2A14BF0A2228
:1015F00008221BE078225A4984F84520226818689E
:1016000012F0800F00F104051D6003D1550601D5CD
:10161000038800E00368D00744BF42F02002226044
:101620001BB9226822F0200222601022002084F8D8
:10163000430001E049490A226568A560002D08DBE6
:10164000206820F0040020602BB9002D7DD1754664
:101650000CE0002B79D07546B3FBF2F002FB10339F
:10166000CB5C05F8013D03460028F5D1082A0BD1D3
:101670002368DA0708D5236962689A42DEBF3023FF
:1016800005F8013C05F1FF35C5EB0E0323612EE0A3
:1016900008681A68496910F0800F03D0101D18609F
:1016A000136808E010F0400F02F10400186013689E
:1016B00001D0198000E0196000232361754616E00F
:1016C0001A68111D1960156862680021284600F02B
:1016D0004FF808B1401B6060636804E004F1420504
:1016E00084F8422001232361002384F84330CDF89D
:1016F00000803B4603AA21463046FFF797FE0130A3
:1017000002D14FF0FF3026E023692A4639463046A1
:10171000C0470130F5D023689B0710D5002504F1A0
:10172000190907E001234A4639463046C0470130CF
:10173000E7D00135E368039A9B1A9D42F2DBE0682B
:10174000039B9842B8BF184605E00B7884F84230F6
:1017500004F142058AE705B0BDE8F083C11C00082A
:10176000D21C000800000000000000000000000083
:1017700001F0FF01102A2BDB10F0070F08D010F842
:10178000013B013A8B422DD010F0070F42B3F6D146
:10179000F0B441EA012141EA014122F007047FF05F
:1017A00000070023F0E80256083C85EA010586EAB6
:1017B000010685FA47F5A3FA87F586FA47F6A5FAF2
:1017C00087F68EB9EED1F0BC01F0FF0102F00702FE
:1017D00032B110F8013B013A83EA010313B1F8D1A9
:1017E0000020704701387047002D06BF354603388A
:1017F000073815F0010F07D1013015F4807F02BFC3
:10180000013015F4C03F0130F0BC0138704700BF13
:1018100010B5431E0A44914204D011F8014B03F85D
:10182000014FF8E710BD884210B501EB020301D863
:10183000421E0BE09842FBD28118D21AD34204D048
:1018400013F8014D01F8014DF8E710BD994204D09D
:1018500011F8014B02F8014FF8E710BD38B5054605
:10186000002946D051F8043C0C1F002BB8BFE418E7
:1018700000F0D6F81F4A1368114613B9636014606C
:1018800032E0A3420ED92268A018834204BF186830
:101890005B68636004BF121822600C6024E0A242FF
:1018A00003D813465A68002AF9D118681918A142BA
:1018B0000BD12168014458188242196014D1106874
:1018C00052685A60014419600EE002D90C232B6063
:1018D0000AE021686018824204BF106852686260A2
:1018E00004BF091821605C602846BDE8384000F05C
:1018F00098B838BD0801002070B5CD1C25F003054F
:1019000008350C2D38BF0C25002D064601DBA942F9
:1019100002D90C23336046E000F082F8234B1C68A8
:101920001A462146A1B10B685B1B0ED40B2B03D9C1
:101930000B60CC18CD501EE08C420DBF63684B6825
:101940006360136018BF0C4615E00C464968E9E770
:10195000174C23681BB9304600F052F82060294626
:10196000304600F04DF8431C18D0C41C24F003048A
:10197000A0420DD12560304600F053F804F10B0071
:10198000231D20F00700C31A0ED05A42E25070BD4A
:10199000211A304600F034F80130EBD10C233360CB
:1019A000304600F03EF8002070BD00BF0801002066
:1019B00004010020F8B5074615460E4621B9114628
:1019C000BDE8F840FFF798BF1AB9FFF747FF284670
:1019D000F8BD00F027F885420ED929463846FFF7B2
:1019E0008BFF044650B131462A46FFF711FF3146BE
:1019F0003846FFF733FF01E03046F8BD2046F8BD1A
:101A000038B5064C0023054608462360FFF788F9E1
:101A1000431C02D1236803B12B6038BD10010020A4
:101A20007047704751F8040C0028BEBF091851F8E0
:101A3000043CC018043870472E2E2F7379737465D8
:101A40006D2F7372632F73746D333266342D68613A
:101A50006C2F73746D3332663478785F68616C5FB5
:101A6000636F727465782E63000000000000000050
:101A70000102030401020304060708092E2E2F7336
:101A8000797374656D2F7372632F73746D3332665F
:101A9000342D68616C2F73746D3332663478785FDF
:101AA00068616C5F7263632E6300000061626F7235
:101AB0007428292C2065786974696E672E2E2E0093
:101AC0002C2066756E6374696F6E3A20000000000A
:101AD000617373657274696F6E20222573222066AC
:101AE00061696C65643A2066696C65202225732201
:101AF0002C206C696E65202564257325730A00000F
:101B00006173736572745F706172616D28292066FC
:101B100061696C65643A2066696C652022257322D0
:101B20002C206C696E652025640A00006D61696E69
:101B300028617267633D25642C20617267763D5B86
:101B4000000000002C20000022257322000000006D
:101B50005D293B0A00000000537461636B206672CC
:101B6000616D653A0A000000205230203D2020259A
:101B70003038580A00000000205231203D20202536
:101B80003038580A00000000205232203D20202525
:101B90003038580A00000000205233203D20202514
:101BA0003038580A0000000020523132203D2025F4
:101BB0003038580A00000000204C52203D202025DB
:101BC0003038580A00000000205043203D202025D6
:101BD0003038580A0000000020505352203D202584
:101BE0003038580A000000004653522F4641523AFE
:101BF0000A0000002043465352203D202025303863
:101C0000580A00002048465352203D2020253038F5
:101C1000580A00002044465352203D2020253038E9
:101C2000580A00002041465352203D2020253038DC
:101C3000580A0000204D4D464152203D20253038A5
:101C4000580A00002042464152203D2020253038CD
:101C5000580A00004D6973630A000000204C522F9F
:101C60004558435F52455455524E3D202530385813
:101C70000A0000005B486172644661756C745D0A1D
:101C8000000000005B4275734661756C745D0A006C
:101C90005B55736167654661756C745D0A00000091
:101CA000000000000000000001020304060708090C
:101CB000232D302B2000686C4C0065666745464735
:101CC00000303132333435363738394142434445B8
:101CD0004600303132333435363738396162636427
:031CE00065660036
:101CE4007856341280000020000000000024F40024
:101CF40000000000000000000000000000000000E0
:101D040000000000000000000000000000000000CF
:101D140000000000000000000000000000000000BF
:101D240000000000000000000000000000000000AF
:101D3400000000000000000000000000000000009F
:101D4400000000000000000000000000000000008F
:081D54001000002032547698C3
:040000050800018965
:00000001FF
